:020000040000FA
:020000006B286B
:040002000034003492
:080008000B11920003088312A2
:100010009100131A1C28990A031D1C289C0A1C080D
:100020003C3C031D1A289C019B0A18301B02831CB0
:100030001A289B013A309900E830810013182528CE
:1000400093182B281319312837281C089700E12012
:10005000131093143E281C089700E12093101315E9
:1000600049281B089700E1201311931553281B08FA
:100070009700E1208617931113145D2815080F3996
:1000800095000608003915070F398600CE200616A0
:10009000662816080F3996000608003916078600EC
:1000A000CE208616662815080F39950006080039F7
:1000B00015048600CE200617662816080F3996000C
:1000C0000608003916048600CE2086171108830022
:1000D000920E120E090085018316073085008601F5
:1000E0008111011481100115811283128B178B125B
:1000F0008501930186018C018D018E01E83081001C
:100100003A309900960195019B019C019D011314C1
:100110008B1613169312051C9228851CA728051D03
:10012000BE288B28D02005188B28051C9528931EE7
:10013000A0289B0A18301B02831C8B289B018B284C
:100140009C0A3C301C02031D8B289C018B28D0206C
:1001500085188B28851CAA28931EB6281B08031D0A
:10016000B42817309B008B289B038B281C08031D89
:10017000BC283B309C008B289C038B28D020051981
:100180008B28051DC128931AC72893168B28831620
:10019000850183128501CD20CB2808008600080048
:1001A00001308D0002308E0064308F00643090008A
:1001B000900BD8288F0BD6288E0BD4288D0BD228E5
:1001C000080094010A309702031CEA280319F12859
:1001D000940AE22897091708093C9500140896002C
:0A01E0000800940A97011708ED28A3
:00000001FF
